:020000022000DC
:100000000D94F4000D9415010D9415010D94150136
:100010000D9415010D9415010D9415010D94150104
:100020000D9415010D9415010D9415010D941501F4
:100030000D9415010D9415010D9415010D941501E4
:100040000D9415010D9415010D9415010D941501D4
:100050000D9415010D9415010D9415010D941501C4
:100060000D9415010D9415010D9415010D941501B4
:100070000D9415010D9415010D9415010D941501A4
:100080000D9415010D9415010D9415010D94150194
:100090000D9415010D9415010D9415010D94150184
:1000A0000D9415010D9415010D9415010D94150174
:1000B0000D9415010D9415010D9415010D94150164
:1000C0000D9415010D9415010D9415010D94150154
:1000D0000D9415010D9415010D9415010D94150144
:1000E0000D9415010D9415010D9415010D94150134
:1000F0000D9415010D9415010D9415010D94150124
:100100000D9415010D9415010D9415010D94150113
:100110000D9415010D9415010D9415010D94150103
:100120000D9415010D9415010D9415010D941501F3
:100130000D9415010D9415010D9415010D941501E3
:100140000D9415010D9415010D9415010D941501D3
:100150000D9415010D9415010D9415010D941501C3
:100160000D9415010D9415010D9415010D941501B3
:100170000D9415010D9415010D9415010D941501A3
:100180000D9415010D9415010D9415010D94150193
:100190000D9415010D9415010D9415010D94150183
:1001A0000D9415010D9415010D9415010D94150173
:1001B0000D9415010D9415010D9415010D94150163
:1001C0000D9415010D9415010D9415010D94150153
:1001D0000D9415010D9415010D9415010D94150143
:1001E0000D9415010D94150111241FBECFEFDFE30F
:1001F000DEBFCDBF01E00CBF10E2A0E0B0E2E6EF51
:10020000FCE002E00BBF02C007900D92A030B107E6
:10021000D9F710E2A0E0B0E201C01D92A130B10711
:10022000E1F70F9498020D9479060D9400009091D7
:100230000020923050F48091B10887FFFACF81E01E
:10024000809300208091B0080895FFCF982F80916F
:100250000020823060F49093B0088091B10886FF4E
:10026000FCCF8091B1088064E0EBF8E081830895D1
:10027000EF92FF921F93CF93DF937C01162FEA0139
:10028000653459F58091CC01877FE0ECF1E08487FB
:100290000F94150588819981AA81BB81682F6F71A0
:1002A00045E0B695A795979587954A95D1F70F9410
:1002B000E9040F94260188819981AA81BB81019666
:1002C000A11DB11D88839983AA83BB830894E1088B
:1002D000F108E114F104F1F660C0663429F06535E7
:1002E00019F0603509F059C088819981AA81BB81D4
:1002F000880F991FAA1FBB1F88839983AA83BB837A
:10030000163499F4688179818A819B810F94E40580
:100310000F942601688179818A819B816F5F7F4F6D
:100320008F4F9F4F0F94E40519C0153561F48881F4
:1003300099810F94F3050F94260188819981019684
:100340000F94F3050BC0103559F488810F94F10513
:100350000F94260188818F5F0F94F1050F94260179
:100360000F945C0688819981AA81BB810296A11DA8
:10037000B11D88839983AA83BB832EEF3FEFE20EE2
:10038000F31EE114F10409F0BBCFB695A79597953C
:10039000879588839983AA83BB83DF91CF911F912F
:1003A000FF90EF9008955F926F927F928F929F924D
:1003B000AF92BF92CF92DF92EF92FF920F931F9373
:1003C000DF93CF93CDB7DEB7C050D240CDBFDEBFF5
:1003D0003C01562E4A0185E46817E9F50F9415058E
:1003E0008091CC01877FE0ECF1E084877E01089466
:1003F000E11CF11C67015701A60CB71C05C00F9446
:100400001701F60181936F01CA14DB04C1F71FC005
:10041000F40180819181A281B381682F6F7175E0B1
:10042000B695A795979587957A95D1F7F70141915C
:100430007F010F94B104F40180819181A281B38185
:100440000196A11DB11D80839183A283B383EC1417
:10045000FD04F1F658C0F6E46F1729F085E568173A
:1004600011F08FE351C0F401C080D180E280F380AD
:10047000CC0CDD1CEE1CFF1CC082D182E282F38218
:100480000F941701082F10E00F941701B82EAA241B
:100490000A291B29F40180819181B8010F94190662
:1004A000F40180819181A281B3810296A11DB11DC9
:1004B00080839183A283B3838EEF9FEF680E791EB2
:1004C00061147104E9F696E4591629F4C701B601DE
:1004D0000F942F0609C0E5E55E1631F40F94070668
:1004E0000F945C060F940B060F945C06F401808158
:1004F0009181A281B381B695A795979587958083C1
:100500009183A283B3838DE0C050DE4FCDBFDEBFA9
:10051000CF91DF911F910F91FF90EF90DF90CF90DF
:10052000BF90AF909F908F907F906F905F90089555
:100530002F923F924F925F926F927F928F929F92F3
:10054000AF92BF92CF92DF92EF92FF920F931F93E1
:10055000DF93CF93CDB7DEB72597CDBFDEBF109227
:100560000020809150008260809350008091510063
:1005700081FFFCCF88ED84BF81E0809340008093B1
:100580006000E0E0F6E080E88183858319821A82CA
:100590001B821C821D820F94BB0520E335E748E0D7
:1005A00050E0E0E0F6E090E8121613061CF421504B
:1005B000304005C097834150504020E335E780919B
:1005C000B10887FF04C081E08093002004C01416A6
:1005D000150654F3A4C120E8209307060F941701D1
:1005E000982F8983813611F489E596C1813469F4A5
:1005F0000F941701E82E0F941701FF2400E010E07C
:10060000102F0F2DFE2CEE241BC0883429F50F94DB
:100610001701E82E0F941701A82E0F941701FF243D
:1006200000E010E08701FF24EE24BB24CC24DD246D
:10063000DC2CCB2CBA2CAA24EA28FB280C291D2957
:1006400090E0A0E0B0E0E82AF92A0A2B1B2BEA820E
:10065000FB820C831D8333C1853649F51A821B82C8
:100660001C821D8214C00F945C066A817B818C8180
:100670009D810F9413068A819B81AC81BD8180503E
:100680009E4FAF4FBF4F8A839B83AC83BD838A81CC
:100690009B81AC81BD8180509040A240B04018F356
:1006A000CE0101960F9439050F94AA0508C1823630
:1006B00029F489E50F94260182E0F6C08234B1F472
:1006C0000F941701182F0F941701712E6624882E8E
:1006D0009924862897280F941701682F8983C401CD
:1006E000AE014E5F5F4F0F94D30116C18736B1F450
:1006F0000F941701182F0F941701512E4424882EA0
:100700009924842895280F941701682F8983C401A0
:10071000AE014E5F5F4F0F9438015DCF8235E9F433
:100720000F945C066A817B818C819D81660F771FA7
:10073000881F991F6F5F7F4F8F4F9F4F0F94E40566
:100740000F9426016A817B818C819D81660F771FC2
:10075000881F991F0F94E40564C0833629F40F9411
:100760001701882E9924ABC08334D9F40F94170154
:10077000382E2224822893280F945C068A819B813C
:10078000880F991FB4010F9419068A819B81AC814F
:10079000BD810196A11DB11D8A839B83AC83BD835E
:1007A0008EC08D36B9F48A819B81AC81BD81805029
:1007B0009040A140B04008F0AEC00F945C066A8142
:1007C0007B818C819D81660F771F881F991F0F94F5
:1007D0002F0675C08434A1F4EA80FB800C811D8152
:1007E0000F941701482F6E2D6F71F5E01695079540
:1007F000F794E794FA95D1F78E2D0F94B10413C0B6
:100800008436E9F48A819B81AC81BD81682F6F7148
:10081000E5E0B695A79597958795EA95D1F70F945A
:10082000E9040F9426018A819B81AC81BD810196E8
:10083000A11DB11D8A839B83AC83BD83CCCE8C3636
:1008400039F40F945C060F9417010F94000637C01B
:10085000823729F40F945C060F9404065DC0863439
:1008600021F40F945C0680E00BC08E3421F40F94C9
:100870005C0681E005C0813531F40F945C0682E0AE
:100880000F94F50549C08035D1F08C34C1F0853422
:1008900021F48DE00F94260142C0803711F483E5E6
:1008A0003BC0843729F48BE70F94260180E034C0E5
:1008B0008857823010F0943521F40F9417018DE0A1
:1008C0002BC09335A1F488E50F94260182E40F94A0
:1008D00026018FE60F9426018FE60F94260184E708
:1008E0000F9426018BE20F9426018BE215C09635FA
:1008F00029F481E30F94260186E30EC0933741F477
:1009000082E40F94260187E90F9426018EE104C04A
:100910009B3109F460CE8FE30F9426015CCE0F94D7
:100920005C0680E8E0E0F6E082831CBEE0E0F0E0F8
:10093000199580E090E02596CDBFDEBFCF91DF9185
:100940001F910F91FF90EF90DF90CF90BF90AF90ED
:100950009F908F907F906F905F904F903F902F90DF
:100960000895582F8091CF0187FDFCCF8091CF0152
:1009700081FF0CC086E3E0ECF1E08287EBECF1E074
:1009800021E030E088ED90E084BF2083E0ECF1E0EE
:1009900083E38287262F30E02F713070852F90E01F
:1009A00055E0880F991F5A95E1F7282B392B209392
:1009B000C001832F8F7181831282448385E38287F4
:1009C000EBECF1E021E030E088ED90E084BF2083A3
:1009D0000895982FE0ECF1E08091CF0187FDFACFE8
:1009E000262F30E02F713070892F90E065E0880F5E
:1009F000991F6A95E1F7282B392B2093C001832F8B
:100A00008F718183128286E08287EBECF1E021E036
:100A100030E088ED90E084BF20838091C401089588
:100A20008091CF0187FDFCCF08958091CF0187FD94
:100A3000FCCF8091CF0181FF0CC086E3E0ECF1E0B8
:100A40008287EBECF1E021E030E088ED90E084BFBC
:100A500020830895982FE0ECF1E08091CF0187FD8D
:100A6000FACF83E382879093C0011182128264835C
:100A70000895DC01E0ECF1E08091CF0187FDFACF31
:100A800083E382871182128290E09093C0018D915E
:100A900084839F5F9032C9F70895982FE0ECF1E0CE
:100AA0008091CF0187FDFACF892F90E075E0880F04
:100AB000991F7A95E1F78093C001892F8F71818307
:100AC000128285E38287EBECF1E021E030E088EDF3
:100AD00090E084BF20830895982FE0ECF1E08091AE
:100AE000CF0187FDFACF892F90E0A5E0880F991FED
:100AF000AA95E1F78093C001892F8F7181831282BB
:100B000082E38287EBECF1E021E030E088ED90E0D9
:100B100084BF20830895982FE0ECF1E08091CF010D
:100B200087FDFACF892F90E0B5E0880F991FBA951D
:100B3000E1F78093C001892F8F718183128284E352
:100B40008287EBECF1E021E030E088ED90E084BFBB
:100B5000208308958091CF0187FDFCCF80E3E0ECF6
:100B6000F1E08287EBECF1E021E030E088ED90E00D
:100B700084BF20830895E0E4F6E08181806881836A
:100B8000E0EBF8E087E68683178288E184830895A6
:100B9000E0EAF4E010828AE0808781E183871586AD
:100BA000089588ED84BF8FE180938000809182005A
:100BB00080FDFCCF0895E0E8F0E080818C7F8160CB
:100BC00098ED94BF808308953BB78BBFFB0186915E
:100BD0003BBF08953BB78BBFFB01879196913BBF0D
:100BE000089542E081C041E07FC08093C001882722
:100BF0008093C1018093C20147E066D0CB01089584
:100C00008093C40148E060C08091D00108953BB753
:100C100048E10D948E063BB74AE10D948E063BB732
:100C200040E20D948E063BB78BBFCB0142E20D94A0
:100C30008E063BB70B0143E20D948E063BB76BBFAC
:100C4000FA0119BEDC0140E04093CA0150E08791EF
:100C500097918D939D935A95D1F73BBF08953BB7DC
:100C60008BBFCB0144E20D948E063BB78BBFCB010B
:100C700045E20D948E063BB746E20D948E063BB7D7
:100C80008BBFCB014AE20D948E063BB78BBFCB01E5
:100C90004CE20D948E063BB78BBFCB014DE20D9419
:100CA0008E0648E311C049E30FC028ED20933400BD
:100CB00021E02093CC0108952091CF0127FDFCCFA6
:100CC00022272093CA0108954093CA0128ED31E0FC
:100CD000209334003093CB016091C4017091C50121
:100CE0008091C60199270895FC014093CA0184911F
:060CF0000895F894FFCF07
:100CF600EE27FF2719BEDC0143E24093CA0150E00C
:100D06002DE90D901D9020933400E89532965A9562
:100D1600C1F711240895FC014093CA012DE92093DF
:0A0D26003400E89511243BBF089546
:0400000320000000D9
:00000001FF
