:100000000C94F4000C9415010C9415010C9415013A
:100010000C9415010C9415010C9415010C94150108
:100020000C9415010C9415010C9415010C941501F8
:100030000C9415010C9415010C9415010C941501E8
:100040000C9415010C9415010C9415010C941501D8
:100050000C9415010C9415010C94C9020C94150113
:100060000C9422010C9415010C9415010C941501AB
:100070000C9415010C9415010C9415010C941501A8
:100080000C9415010C9415010C9415010C94150198
:100090000C9415010C9415010C9415010C94150188
:1000A0000C9415010C9415010C9415010C94150178
:1000B0000C9415010C9415010C9415010C94BD02BF
:1000C0000C9415010C947B020C9485020C94A902EB
:1000D0000C94B3020C9415010C9415010C94D302EA
:1000E0000C9415010C9415010C9415010C94150138
:1000F0000C9415010C9415010C9415010C94150128
:100100000C9415010C9415010C9415010C94150117
:100110000C9415010C9415010C9415010C94150107
:100120000C94E7020C9415010C9415010C94150124
:100130000C9415010C9415010C9415010C94DD021E
:100140000C9415010C9415010C9415010C944B059D
:100150000C9415010C9415010C9415010C941501C7
:100160000C9415010C9415010C9415010C941501B7
:100170000C9415010C9415010C9415010C941501A7
:100180000C9415010C9415010C9415010C94150197
:100190000C9415010C9415010C9415010C94150187
:1001A0000C9415010C9415010C9415010C94150177
:1001B0000C9455020C9415010C94D5010C94F1018A
:1001C0000C9415020C9439020C9415010C94150131
:1001D0000C9415010C9415010C9415010C94150147
:1001E0000C9415010C94150111241FBECFEFDFE311
:1001F000DEBFCDBF00E00CBF10E2A0E0B0E2E0EB5C
:10020000F4E100E00BBF02C007900D92A032B107ED
:10021000D9F710E2A0E2B0E201C01D92A133B1070C
:10022000E1F70E9470060C94560A0C940000E0EC72
:10023000F8E088E0808383E0818380E4E0E4F6E016
:10024000818308951F920F920FB60F920BB60F92F3
:1002500011248F939F93EF93FF939091C3088FB1D5
:10026000882379F18EB1882329F48091380BE0EC52
:10027000F8E083838EB1813009F489C08EB1823079
:1002800009F472C08EB1833009F477C08EB1843026
:1002900009F448C08EB1853009F44DC08EB1863066
:1002A00009F452C08EB1873009F457C0FF91EF9125
:1002B0009F918F910F900BBE0F900FBE0F901F90CC
:1002C0001895953B09F46DC08DB1882379F3EEB193
:1002D000F0E0E75DFF4D90838EB18F5F8EB98EB1F8
:1002E000883021F71DB88091292090912A20E0E0E4
:1002F000FBE080AF91AF80912B2090912C2082AFBA
:1003000093AF80912D2090912E2084AF95AF809156
:100310002F209091302080933E0B90933F0B81E0F3
:100320008FB9C4CF80913C0BE0ECF8E083838EB1B1
:10033000853009F0B3CF80913D0BE0ECF8E083838A
:100340008EB1863009F0AECF80913E0BE0ECF8E044
:1003500083838EB1873009F0A9CF80913F0BE0EC09
:10036000F8E083831FB8A2CF80913A0BE0ECF8E06D
:1003700083838EB1833009F089CF80913B0BE0EC11
:10038000F8E083838EB1843009F084CFCBCF8091A5
:10039000390BE0ECF8E083838EB1823009F072CF44
:1003A000E3CF81E08DB91EB881CF1F920F920FB6B7
:1003B0000F920BB60F9211248F93EF93FF9380B19E
:1003C000806CE0E8F6E0868383B18F738583FF91CC
:1003D000EF918F910F900BBE0F900FBE0F901F905B
:1003E00018951F920F920FB60F920BB60F92112411
:1003F0008F93EF93FF9380B18F63E0E8F6E08683FD
:1004000083B1807C858381B1806FE0EAF6E08683EA
:1004100084B18F708583FF91EF918F910F900BBE08
:100420000F900FBE0F901F9018951F920F920FB64E
:100430000F920BB60F9211248F93EF93FF9381B11C
:100440008F60E0EAF6E0868384B1807F858382B1A5
:100450008C6FE0E6F6E0868385B183708583FF913B
:10046000EF918F910F900BBE0F900FBE0F901F90CA
:1004700018951F920F920FB60F920BB60F92112480
:100480008F93EF93FF9382B18360E0E6F6E086837B
:1004900085B18C7F8583FF91EF918F910F900BBE7B
:1004A0000F900FBE0F901F9018951F920F920FB6CE
:1004B0000F920BB60F9211248F93EF93FF9383B19A
:1004C000E0E8F6E0868380B1858384B1E0EAF6E077
:1004D000868381B1858385B1E0E6F6E0868382B1CB
:1004E0008583FF91EF918F910F900BBE0F900FBE00
:1004F0000F901F9018951F920F920FB60F92112414
:100500000F900FBE0F901F9018951F920F920FB66D
:100510000F920BB60F9211248F93EF93FF9380915C
:100520002120E6E0F0E2E80FF11D8081880F880FBE
:10053000880FE8E2F2E08183808180688083FF9108
:10054000EF918F910F900BBE0F900FBE0F901F90E9
:1005500018951F920F920FB60F9211240F900FBE95
:100560000F901F9018951F920F920FB60F921124A3
:100570000F900FBE0F901F9018951F920F920FB6FD
:100580000F9211240F900FBE0F901F901895089591
:1005900008951F920F920FB60F9211240F900FBE65
:1005A0000F901F9018951F920F920FB60F92112463
:1005B0000F900FBE0F901F9018951F920F920FB6BD
:1005C0000F9211240F900FBE0F901F9018951F923D
:1005D0000F920FB60F920BB60F9211242F933F93E9
:1005E0004F938F939F93EF93FF9341E0E0E0F2E00E
:1005F00043A720912C0230912D0288B18823E1F489
:10060000E0912120F0E0E050F04E8081882311F14C
:100610008BB18B3058F180910C20821768F4809157
:10062000600990916109880F991FE0E4F9E086A3C1
:1006300097A31092282048B9FF91EF919F918F9135
:100640004F913F912F910F900BBE0F900FBE0F90C7
:100650001F9018958CB18B3028F080910C202817B2
:1006600058F7DDCF8CB18F5F8CB9E6CF8BB18F5F40
:100670008BB9E2CF80B18F7380B983B18F7383B9A7
:1006800081B1847F81B90A9A84B1887F84B9239A21
:10069000E0EAF6E08091A4068E7F84838091A40630
:1006A00082608483809184068F73E0E8F6E084831F
:1006B000E0E0F8E010A211A28091200890912108BA
:1006C000885E9D4FC8F380910D2090910E20E0E050
:1006D000FBE082AF93AF0798069A1E981F9A81B1EC
:1006E000807F81B984B1807F84B9E0EAF6E08091AF
:1006F000A406827F84838091A40682608483E0E0E4
:10070000F8E010A211A280911920282F30E08091EA
:1007100020089091210882179307C8F380910F2039
:1007200090911020E0E0FBE082AF93AF0798069A2B
:100730001E981F9A81B1807F81B984B1807F84B96E
:10074000E0EAF6E08091A406887F84838091A40685
:1007500088608483E0E0F8E010A211A280911A2062
:10076000282F30E08091200890912108821793076C
:10077000C8F38091112090911220E0E0FBE082AF5D
:1007800093AF80B18F7380B983B18F7383B981B117
:10079000817F81B9089A84B1827F84B9219AE0EA85
:1007A000F6E08091A4068B7F84838091A406886004
:1007B0008483809184068F73E0E8F6E08483E0E030
:1007C000F8E010A211A280911B20282F30E0809128
:1007D00020089091210882179307C8F38091132075
:1007E00090911420E0E0FBE082AF93AF80B18F7373
:1007F00080B983B18F7383B981B1817F81B9089A40
:1008000084B1827F84B9219AE0E8F6E08091840681
:100810008F7B848380918406806884838091A40682
:10082000837FE0EAF6E08483E0E0F8E010A211A222
:1008300080911C20282F30E0809120089091210881
:1008400082179307C8F38091152090911620E0E05D
:10085000FBE082AF93AF80B18F7380B983B18F73A8
:1008600083B981B1847F81B90A9A84B1887F84B9C0
:10087000239AE0E8F6E0809184068F7B8483809160
:100880008406806884838091A4068C7FE0EAF6E089
:100890008483E0E0F8E010A211A280911D20282FAF
:1008A00030E0809120089091210882179307C8F3C7
:1008B0008091172090911820E0E0FBE082AF93AF89
:1008C00096958795E0E0FAE082AF93AF91E0909340
:1008D000282080B18F7380B983B18F7383B981B1C0
:1008E000847F81B90A9A84B1887F84B9239AE0EA27
:1008F000F6E08091A4068E7F84838091A4068260B6
:100900008483809184068F73E0E8F6E0848385E039
:1009100080932120E0E0F8E010A211A2E0E4F9E0E9
:1009200010A211A297B908950895882371F081301B
:1009300009F1823009F471C0833009F48DC084302C
:1009400071F1853009F44AC008950798069A1E98F7
:100950001F9A81B1807F81B984B1807F84B9E0EA38
:10096000F6E08091A406827F84838091A406826051
:10097000848308950798069A1E981F9A81B1807FF4
:1009800081B984B1807F84B9E0EAF6E08091A40661
:10099000887F84838091A40688608483089580B1D1
:1009A0008F7380B983B18F7383B981B1847F81B92B
:1009B0000A9A84B1887F84B9239AE0E8F6E08091AE
:1009C00084068F7B848380918406806884838091F1
:1009D000A4068C7FE0EAF6E08483089580B18F73EB
:1009E00080B983B18F7383B981B1847F81B90A9A49
:1009F00084B1887F84B9239AE0EAF6E08091A40666
:100A00008E7F84838091A406826084838091840693
:100A10008F73E0E8F6E08483089580B18F7380B926
:100A200083B18F7383B981B1817F81B9089A84B111
:100A3000827F84B9219AE0EAF6E08091A4068B7F58
:100A400084838091A40688608483809184068F7358
:100A5000E0E8F6E08483089580B18F7380B983B1B4
:100A60008F7383B981B1817F81B9089A84B1827F04
:100A700084B9219AE0E8F6E0809184068F7B848334
:100A800080918406806884838091A406837FE0EA55
:100A9000F6E0848308951F920F920FB60F920BB663
:100AA0000F9211242F933F934F935F936F937F93F4
:100AB0008F939F93AF93BF93EF93FF9381E08093C6
:100AC000282088EE9DEFE0E4F9E086A397A38091CB
:100AD00021208530F0F01092212019B81AB81BB8E7
:100AE0001CB818B8809121200E949504FF91EF91C5
:100AF000BF91AF919F918F917F916F915F914F9136
:100B00003F912F910F900BBE0F900FBE0F901F9033
:100B10001895809121208F5F80932120DECF08954A
:100B200008950F931F938C018FEF9FEFF80186A319
:100B300097A3C80160E00E94A907C80167E00E946E
:100B40009D071F910F9108950F931F938C010E9491
:100B50003B08F8018181897E846081838481887F5C
:100B60008360848382818F7C828380A1807E816088
:100B700080A380A5807E816080A780A9807E81601F
:100B800080AB80AD807E816080AF82A1807F8360FA
:100B900082A382A5807F836082A782A9807F8360F1
:100BA00082AB82AD807F836082AFE0EAF0E0828139
:100BB00084608283F801808181608083C8010E9403
:100BC00098081F910F910895EF92FF920F931F9332
:100BD0008C017B01FC0146A357A360E00E94A9079A
:100BE000C80160E10E94C307C80160E20E94C30718
:100BF000C80160E40E94C307C80160E80E94C307FF
:100C0000C8016CE00E940108C80163E00E94DD0792
:100C1000E0EAF0E0828184608283C80161E00E94A2
:100C20009D07C70161E00E9405091F910F91FF9088
:100C3000EF900895EF92FF920F931F938C017B0129
:100C4000FC0146A357A360E00E94A907C80160E128
:100C50000E94C307C80160E20E94C307C80160E4A4
:100C60000E94C307C80160E80E94C307C8016CE086
:100C70000E940108C80163E00E94DD07E0EAF0E09D
:100C8000828184608283C80161E00E949D07C70160
:100C900061E00E9405091F910F91FF90EF90089568
:100CA000809150008260809350008091510081FFBC
:100CB000FCCF80E860E10E940007809150008061D5
:100CC000809350008091510084FFFCCF88ED84BF59
:100CD00083E0E0E4F0E0818384E00E942807089547
:100CE000EF92FF920F931F9318B80E94500688E06E
:100CF0008093C00883E0E0ECF8E0818380E4E0E4E6
:100D0000F6E081838091A2008460E0EAF0E08283D3
:100D1000E12C4BE0F42E84EF91E0F70180AF91AF2E
:100D200082AF93AF84AF95AF80933E0B90933F0B10
:100D300000E01AE08AEF90E0F80180AF91AF82AF57
:100D400093AF84AF95AF80933E0A90933F0A80E0C3
:100D50009BE060E97BE048E853E10E941A0680E0EE
:100D60009AE060E97AE048E853E10E94E405F7017F
:100D700010A211A2F80110A211A280E098E00E9436
:100D8000910580E092E00E94A40580E492E00E9438
:100D9000A40578940E943A0310B810B813B813B899
:100DA00011B811B814B814B8E0E8F6E01482E0EA1B
:100DB000F6E01482FFCF0F93DF93CF930F92CDB75E
:100DC000DEB72FB72983F8941BBEFC0108ED04BFE2
:100DD000608389818FBF0F90CF91DF910F9108952C
:100DE000662339F490E0482B942BE0E5F0E0928301
:100DF000089590E2482B942BE0E5F0E0928308956B
:100E00006F71682BE0E5F0E065830895E0E5F0E0C0
:100E10002081982F90959223908390818923089523
:100E20000F93DF93CF930F92CDB7DEB79FB7998320
:100E3000F8941BBE682B81E490E0FC0108ED04BF30
:100E4000608389818FBF0F90CF91DF910F910895BB
:100E50000F93DF93CF930F92CDB7DEB72091400071
:100E60009FB79983F8941BBEA0E4B0E0287F282B9D
:100E7000FD0108ED04BF208399819FBF9C918923C8
:100E80000F90CF91DF910F910895E0E4F0E093810E
:100E9000917F9160982B93830895282F309156006D
:100EA000662369F0982F822F80958323982BE0E5A5
:100EB000F0E09683213059F0223019F0089590E047
:100EC000F2CF8091600081608093600008958091EE
:100ED000680081608093680008950F93DF93CF933B
:100EE0000F92CDB7DEB78FB78983F8941BBE23E08E
:100EF00083E590E0FC0108ED04BF208389818FBF6A
:100F00000F90CF91DF910F9108950F93DF93CF93BF
:100F10000F92CDB7DEB78FB78983F8941BBE21E05F
:100F200082E490E0FC0108ED04BF208389818FBF3B
:100F30000F90CF91DF910F910895FC018081807F08
:100F4000862B80830895FC018081807F862B80839F
:100F50000895FC018181887F862B81830895FC019F
:100F60008181887F862B81830895FC018381807134
:100F70008062862B83830895FC0183818071806267
:100F8000862B83830895FC018181607F862B81837A
:100F90000895FC0181816073862B81830895FC0193
:100FA0008181607F6095862381830895FC01818122
:100FB00060736095862381830895FC0186818C7F10
:100FC000862B86830895FC0186818C7F862B868301
:100FD0000895FC018681837F862B86830895FC011A
:100FE0008681837F862B86830895FC0187818C7F91
:100FF000862B87830895FC0187818C7F862B8783CE
:101000000895FC018781837F862B87830895FC01E7
:101010008781837F862B87830895FC0187818F7C5E
:10102000862B87830895FC0187818F73862B8783A6
:101030000895FC018081807F80838CE08187089502
:10104000FC018081807F80838CE081870895FC0192
:1010500080816F70862B80830895FC0180816F7082
:101060006095862380830895FC0183818C7F862B85
:10107000838342830895DC0182E0A030B807A9F0A1
:1010800082E08093CA01E4E2F0E0E4911092CA01A8
:101090001C96EC931C978093CA01E5E2F0E0E49182
:1010A0001092CA011D96EC93089582E08093CA01C4
:1010B000E0E2F0E0E4911092CA011C96EC931C97D8
:1010C0008093CA01E1E2F0E0E4911092CA011D961A
:1010D000EC930895FC0181E0838324813581261BF4
:1010E0003109C9010895FC0181E0838324813581A0
:1010F000772767FD7095261B370BC9010895FC0102
:1011000081E0838324813581C9010895FC0181E058
:10111000838384810895FC0181E083838581089520
:10112000FC01848114829AE29A95F1F784830895F0
:10113000FC01948181E0848385E58A95F1F79483AD
:101140000895FB014423D9F040E050E020E030E076
:1011500061E0808180688083838180FFFDCF63832D
:1011600084819581480F591F2F5F3F4F24303105EF
:1011700081F75695479556954795842F0895808118
:1011800080688083838180FFFDCF81E083838481B9
:1011900095810895FB014423E9F040E050E020E010
:1011A00030E061E0808180688083838180FFFDCFB3
:1011B000638384819581480F591F2F5F3F4F2430EF
:1011C000310581F7CA0157FD10C095958795959512
:1011D00087950895808180688083838180FFFDCF1B
:1011E00081E0838384819581089503969595879501
:1011F000959587950895AAECB1E092E09C93E82F2D
:10120000F0E0E4911C928E2F0895FC016083089514
:10121000AF92CF92EF920F93DC01FB016D937C9321
:10122000119712964D935C93139714961C921497F2
:10123000CC20E1F490E02223E1F480E000650A296B
:10124000902B892B8083ED91FC911197E18215966B
:101250001D921C9216971296ED91FC91139780EABD
:1012600081830F91EF90CF90AF90089590E8222363
:1012700021F380E2E3CFEF920F93DC01FB016D934A
:101280007C93119712964D935C931397222381F4CC
:1012900080E4802B8083ED91FC911197E18212967E
:1012A000ED91FC91139780E481830F91EF90089565
:1012B00080E6EFCFEF920F931F93FC010083118321
:1012C000E282638374834583568327831086118665
:1012D0001F910F91EF900895CF93DF93EC01AD81B3
:1012E000BE8118969C911897E881F981808184FFCE
:1012F0002EC083811596ED91FC911697E90FF11D93
:1013000080839F5FED81FE818781981780F08281C5
:101310000190F081E02D8583AD81BE8181E0199639
:101320008C93199718969C93DF91CF910895038021
:10133000F481E02DE90FF11D8081E881F98183833B
:10134000AD81BE8118969C93DF91CF91089581E085
:101350008C8318969C93DF91CF910895CF93DF9360
:10136000DC01EB0114969C9114971596ED91FC917C
:1013700016973097A1F18185882349F1992339F097
:101380001296ED91FC911397848184FF24C01596E9
:10139000CD93DC931697198614961C9214978A8124
:1013A000E881F98186831596ED91FC911697108658
:1013B0001596ED91FC9116970380F481E02D8081C4
:1013C000ED91FC91838380E0DF91CF91089582E0DD
:1013D000DF91CF91089581E0DF91CF910895159627
:1013E0006D937C931697D3CFFC01A081B1811396A6
:1013F0006C930190F081E02D828187FFFDCF838186
:101400000895CF93DF93DC01FB016115710509F4A9
:1014100049C015966D937C9316979281C081D181B6
:10142000209709F09E836781662329F120E030E050
:101430001596ED91FC9116970380F481E02DE20F53
:10144000F31F8081ED91FC9111978383ED91FC91C5
:101450001197828187FFFDCF83811596ED91FC91D5
:1014600016970580F681E02DE20FF31F80832F5F32
:101470003F4F2617E8F21596ED91FC911697C08123
:10148000D181209729F09D831596ED91FC911697B7
:1014900060871596ED91FC91169781E08187DF9129
:1014A000CF91089580E0DF91CF910895F894FFCF18
:1014B0000001000100010504030504035820032076
:1014C0000384038403B004B004FA9669504B4B00C4
:00000001FF
