:100000000C94F4000C940D010C940D010C940D0152
:100010000C940D010C940D010C940D010C940D0128
:100020000C940D010C940D010C940D010C940D0118
:100030000C940D010C940D010C940D010C940D0108
:100040000C940D010C940D010C940D010C940D01F8
:100050000C940D010C940D010C940D010C940D01E8
:100060000C940D010C940D010C940D010C940D01D8
:100070000C940D010C940D010C940D010C940D01C8
:100080000C940D010C940D010C940D010C940D01B8
:100090000C940D010C940D010C940D010C940D01A8
:1000A0000C940D010C940D010C940D010C940D0198
:1000B0000C940D010C940D010C940D010C940D0188
:1000C0000C940D010C940D010C940D010C940D0178
:1000D0000C940D010C940D010C940D010C940D0168
:1000E0000C940D010C940D010C940D010C940D0158
:1000F0000C940D010C940D010C940D010C940D0148
:100100000C940D010C940D010C940D010C940D0137
:100110000C940D010C940D010C940D010C940D0127
:100120000C940D010C940D010C940D010C940D0117
:100130000C940D010C940D010C940D010C940D0107
:100140000C940D010C940D010C940D010C940D01F7
:100150000C940D010C940D010C940D010C940D01E7
:100160000C940D010C940D010C940D010C940D01D7
:100170000C940D010C940D010C940D010C940D01C7
:100180000C940D010C940D010C940D010C940D01B7
:100190000C940D010C940D010C940D010C940D01A7
:1001A0000C940D010C940D010C940D010C940D0197
:1001B0000C940D010C940D010C940D010C940D0187
:1001C0000C940D010C940D010C940D010C940D0177
:1001D0000C940D010C940D010C940D010C940D0167
:1001E0000C940D010C940D0111241FBECFEFDFE321
:1001F000DEBFCDBF00E00CBF10E2A0E0B0E2E6E45D
:10020000F4E000E00BBF02C007900D92A030B107F0
:10021000D9F70E942F010C9421020C9400008091C8
:1002200050008260809350008091510081FFFCCF8C
:1002300080E860E10E948401809150008061809399
:1002400050008091510084FFFCCF88ED84BF83E093
:10025000E0E4F0E0818384E00E94AC0108950E9414
:100260000F0180EC809380068FE08093A006A0E8C9
:10027000B6E0E0EAF6E050E445E095ED30E82AE04B
:1002800014961C92149714820000000000000000D5
:1002900014965C9314974483892F8A95F1F71496EA
:1002A0001C921497148200000000000000001496B5
:1002B0003C9314972483892F8A95F1F7E1CF0F930C
:1002C000DF93CF930F92CDB7DEB72FB72983F89482
:1002D0001BBEFC0108ED04BF608389818FBF0F90B6
:1002E000CF91DF910F910895662339F490E0482B68
:1002F000942BE0E5F0E09283089590E2482B942B54
:10030000E0E5F0E0928308956F71682BE0E5F0E09E
:1003100065830895E0E5F0E02081982F9095922381
:1003200090839081892308950F93DF93CF930F9249
:10033000CDB7DEB79FB79983F8941BBE682B81E4D5
:1003400090E0FC0108ED04BF608389818FBF0F90AE
:10035000CF91DF910F9108950F93DF93CF930F9279
:10036000CDB7DEB7209140009FB79983F8941BBEAC
:10037000A0E4B0E0287F282BFD0108ED04BF208316
:1003800099819FBF9C9189230F90CF91DF910F910D
:100390000895E0E4F0E09381917F9160982B93833E
:1003A0000895282F30915600662369F0982F822FE8
:1003B00080958323982BE0E5F0E09683213059F077
:1003C000223019F0089590E0F2CF809160008160B2
:1003D0008093600008958091680081608093680038
:1003E00008950F93DF93CF930F92CDB7DEB78FB7FA
:1003F0008983F8941BBE23E083E590E0FC0108EDBF
:1004000004BF208389818FBF0F90CF91DF910F911F
:1004100008950F93DF93CF930F92CDB7DEB78FB7C9
:100420008983F8941BBE21E082E490E0FC0108ED92
:1004300004BF208389818FBF0F90CF91DF910F91EF
:060440000895F894FFCFBF
:00000001FF
