:100000000C94BC000C94CA000C94CA000C94CA0056
:100010000C94CA000C94CA000C94CA000C94CA0038
:100020000C94CA000C94CA000C94CA000C94CA0028
:100030000C94CA000C94CA000C94CA000C94CA0018
:100040000C94CA000C94CA000C94CA000C94CA0008
:100050000C94CA000C94CA000C94CA000C94CA00F8
:100060000C94CA000C94CA000C94CA000C94CA00E8
:100070000C94CA000C94CA000C94CA000C94CA00D8
:100080000C94CA000C94CA000C94CA000C94CA00C8
:100090000C94CA000C94CA000C94CA000C94CA00B8
:1000A0000C94CA000C94CA000C94CA000C94CA00A8
:1000B0000C94CA000C94CA000C94CA000C94CA0098
:1000C0000C94CA000C94CA000C94CA000C94CA0088
:1000D0000C94CA000C94CA000C94CA000C94CA0078
:1000E0000C94CA000C94CA000C94CA000C94CA0068
:1000F0000C94CA000C94CA000C94CA000C94CA0058
:100100000C94CA000C94CA000C94CA000C94CA0047
:100110000C94CA000C94CA000C94CA000C94CA0037
:100120000C94CA000C94CA000C94CA000C94CA0027
:100130000C94CA000C94CA000C94CA000C94CA0017
:100140000C94CA000C94CA000C94CA000C94CA0007
:100150000C94CA000C94CA000C94CA000C94CA00F7
:100160000C94CA000C94CA000C94CA000C94CA00E7
:100170000C94CA000C94CA0011241FBECFEFDFE21A
:10018000DEBFCDBF18BE19BE1ABE1BBE0E94CC007A
:100190000C9462010C9400009FEF9093B00088E1F2
:1001A000E0E0F6E0808B9093B000E0E2F6E0808B38
:1001B0009093B000E0E4F6E0808B9093B000E0E62E
:1001C000F6E0808B9093B000E0E8F6E0808B9093AF
:1001D000B000809150008160809350008091510068
:1001E00080FFFCCFE0E8F6E080918006826080939B
:1001F00080068091800681608093800680918406CD
:1002000081608483809184068260848320E030E072
:1002100040E050E0203E8EE2380780E0480780E072
:10022000580769F1283A81E6380780E0480780E0FE
:10023000580749F4809184068D7F848380918406D9
:100240008E7F84833AC0203385E7380780E04807F3
:1002500080E05807A1F0203583EC380780E048079C
:1002600080E0580721F4809184068260E6CF203335
:1002700082EF380780E0480780E0580741F480911A
:10028000840681608483809184068260DACF283F6F
:1002900084E2380781E0480780E0580769F48091DC
:1002A00084068D7F8483809184068160848320E02E
:1002B00030E040E050E001C000002F5F3F4F4F4F63
:0802C0005F4FA8CFF894FFCFB7
:00000001FF
