:108000000C94BC400C94D2400C94D2400C94D240BE
:108010000C94D2400C94D2400C94D2400C94D24098
:108020000C94D2400C94D2400C94D2400C94D24088
:108030000C94D2400C94D2400C94D2400C94D24078
:108040000C94D2400C94D2400C94D2400C94D24068
:108050000C94D2400C94D2400C94D2400C94D24058
:108060000C94D2400C94D2400C94D2400C94D24048
:108070000C94D2400C94D2400C94D2400C94D24038
:108080000C94D2400C94D2400C94D2400C94D24028
:108090000C94D2400C94D2400C94D2400C94D24018
:1080A0000C94D2400C94D2400C94D2400C94D24008
:1080B0000C94D2400C94D2400C94D2400C94D240F8
:1080C0000C94D2400C94D2400C94D2400C94D240E8
:1080D0000C94D2400C94D2400C94D2400C94D240D8
:1080E0000C94D2400C94D2400C94D2400C94D240C8
:1080F0000C94D2400C94D2400C94D2400C94D240B8
:108100000C94D2400C94D2400C94D2400C94D240A7
:108110000C94D2400C94D2400C94D2400C94D24097
:108120000C94D2400C94D2400C94D2400C94D24087
:108130000C94D2400C94D2400C94D2400C94D24077
:108140000C94D2400C94D2400C94D2400C94D24067
:108150000C94D2400C94D2400C94D2400C94D24057
:108160000C94D2400C94D2400C94D2400C94D24047
:108170000C94D2400C94D24011241FBECFEFDFE20A
:10818000DEBFCDBF18BE19BE1ABE1BBE10E2A0E0F6
:10819000B0E201C01D92A130B107E1F70E94554243
:1081A0000C9420460C94004090910020923050F4A2
:1081B0008091A10A87FFFACF81E08093002080910F
:1081C000A00A0895FFCF982F80910020823060F49C
:1081D0009093A00A8091A10A86FFFCCF8091A10A0A
:1081E0008064E0EAFAE081830895EF92FF921F93A2
:1081F000CF93DF937C01162FEA01653459F5809106
:10820000CC01877FE0ECF1E084870E948D44888177
:108210009981AA81BB81682F6F7145E0B695A795BA
:10822000979587954A95D1F70E9461440E94E34053
:1082300088819981AA81BB810196A11DB11D888386
:108240009983AA83BB830894E108F108E114F1043F
:10825000F1F660C0663429F0653519F0603509F033
:1082600059C088819981AA81BB81880F991FAA1F53
:10827000BB1F88839983AA83BB83163499F46881D2
:1082800079818A819B810E948B450E94E3406881AD
:1082900079818A819B816F5F7F4F8F4F9F4F0E94B3
:1082A0008B4519C0153561F4888199810E949A45E2
:1082B0000E94E3408881998101960E949A450BC0F3
:1082C000103559F488810E9498450E94E3408881C6
:1082D0008F5F0E9498450E94E3400E940346888178
:1082E0009981AA81BB810296A11DB11D88839983C2
:1082F000AA83BB832EEF3FEFE20EF31EE114F104DD
:1083000009F0BBCFB695A7959795879588839983F4
:10831000AA83BB83DF91CF911F91FF90EF900895C7
:108320005F926F927F928F929F92AF92BF92CF9205
:10833000DF92EF92FF920F931F93DF93CF93CDB70E
:10834000DEB7C050D140CDBFDEBF3C01562E4A0142
:1083500085E46817E9F50E948D448091CC01877F00
:10836000E0ECF1E084877E010894E11CF11C6701D8
:108370005701A60CB71C05C00E94D440F60181939A
:108380006F01CA14DB04C1F71FC0F4018081918121
:10839000A281B381682F6F7175E0B695A795979507
:1083A00087957A95D1F7F70141917F010E94A24408
:1083B000F40180819181A281B3810196A11DB11D3B
:1083C00080839183A283B383EC14FD04F1F658C03B
:1083D000F6E46F1729F085E5681711F08FE351C0B7
:1083E000F401C080D180E280F380CC0CDD1CEE1C57
:1083F000FF1CC082D182E282F3820E94D440082F07
:1084000010E00E94D440B82EAA240A291B29F401A6
:1084100080819181B8010E94C045F40180819181E1
:10842000A281B3810296A11DB11D80839183A28395
:10843000B3838EEF9FEF680E791E61147104E9F625
:1084400096E4591629F4C701B6010E94D64509C021
:10845000E5E55E1631F40E94AE450E9403460E9497
:10846000B2450E940346F40180819181A281B381CB
:10847000B695A7959795879580839183A283B383BB
:108480008DE0C050DF4FCDBFDEBFCF91DF911F9198
:108490000F91FF90EF90DF90CF90BF90AF909F90A3
:1084A0008F907F906F905F9008952F923F924F92A0
:1084B0005F926F927F928F929F92AF92BF92CF9274
:1084C000DF92EF92FF920F931F93DF93CF93CDB77D
:1084D000DEB72597CDBFDEBF1A821B821C821D82AC
:1084E00019821092002081E080936800E0E8F6E0B5
:1084F00082E0818385830E94624520E335E748E07E
:1085000050E0E0E8F6E092E0121613061CF4215069
:10851000304005C097834150504020E335E78091BB
:10852000A10A87FF04C081E08093002004C01416D4
:10853000150654F3A4C122E0209387060E94D4407C
:10854000982F8983813611F489E596C1813469F4C5
:108550000E94D440E82E0E94D440FF2400E010E0A6
:10856000102F0F2DFE2CEE241BC0883429F50E94FD
:10857000D440E82E0E94D440A82E0E94D440FF246C
:1085800000E010E08701FF24EE24BB24CC24DD248E
:10859000DC2CCB2CBA2CAA24EA28FB280C291D2978
:1085A00090E0A0E0B0E0E82AF92A0A2B1B2BEA822F
:1085B000FB820C831D8333C1853649F51A821B82E9
:1085C0001C821D8214C00E9403466A817B818C81BB
:1085D0009D810E94BA458A819B81AC81BD8180507A
:1085E0009F4FAF4FBF4F8A839B83AC83BD838A81EC
:1085F0009B81AC81BD8180509048A040B04018F371
:10860000CE0101960E94E0440E94514508C1823685
:1086100029F489E50E94E34081E0F6C08234B1F498
:108620000E94D440182F0E94D440712E6624882EB8
:108630009924862897280E94D440682F8983C401F2
:10864000AE014E5F5F4F0E94904116C18736B1F474
:108650000E94D440182F0E94D440512E4424882ECA
:108660009924842895280E94D440682F8983C401C6
:10867000AE014E5F5F4F0E94F5405DCF8235E9F459
:108680000E9403466A817B818C819D81660F771FE2
:10869000881F991F6F5F7F4F8F4F9F4F0E948B45A1
:1086A0000E94E3406A817B818C819D81660F771FE8
:1086B000881F991F0E948B4564C0833629F40E944D
:1086C000D440882E9924ABC08334D9F40E94D4407E
:1086D000382E2224822893280E9403468A819B8177
:1086E000880F991FB4010E94C0458A819B81AC818B
:1086F000BD810196A11DB11D8A839B83AC83BD837F
:108700008EC08D36B9F48A819B81AC81BD81805049
:108710009044A040B04008F0AEC00E9403466A8179
:108720007B818C819D81660F771F881F991F0E9416
:10873000D64575C08434A1F4EA80FB800C811D818C
:108740000E94D440482F6E2D6F71F5E01695079565
:10875000F794E794FA95D1F78E2D0E94A24413C0A6
:108760008436E9F48A819B81AC81BD81682F6F7169
:10877000E5E0B695A79597958795EA95D1F70E947C
:1087800061440E94E3408A819B81AC81BD81019656
:10879000A11DB11D8A839B83AC83BD83CCCE8C3657
:1087A00039F40E9403460E94D4400E94A74537C076
:1087B000823729F40E9403460E94AB455DC086348F
:1087C00021F40E94034680E00BC08E3421F40E9405
:1087D000034681E005C0813531F40E94034682E002
:1087E0000E949C4549C08035D1F08C34C1F085345D
:1087F00021F48DE00E94E34042C0803711F483E50C
:108800003BC0843729F48BE70E94E34080E034C00A
:108810008857823010F0943521F40E94D4408DE0C6
:108820002BC09335A1F488E50E94E34082E40E94C6
:10883000E3408FE60E94E3408FE60E94E34084E736
:108840000E94E3408BE20E94E3408BE215C0963524
:1088500029F481E30E94E34086E30EC0933741F49C
:1088600081E40E94E34085E90E94E3408EE104C078
:108870009B3109F460CE8FE30E94E3405CCE0E94FE
:10888000034682E0E0E8F6E082831CBEE0E0F0E030
:10889000099580E090E02596CDBFDEBFCF91DF91B6
:1088A0001F910F91FF90EF90DF90CF90BF90AF900E
:1088B0009F908F907F906F905F904F903F902F9000
:1088C0000895982FE0ECF1E08091CF0187FDFACF79
:1088D000262F30E02F713070892F90E045E0880F0F
:1088E000991F4A95E1F7282B392B2093C001832F3C
:1088F0008F718183128286E08287EBECF1E021E0C8
:1089000030E088ED90E084BF20838091C401089519
:108910008091CF0187FDFCCF08958091CF0187FD25
:10892000FCCF8091CF0181FF0CC086E3E0ECF1E049
:108930008287EBECF1E021E030E088ED90E084BF4D
:1089400020830895DF92EF92FF920F931F93E82EFA
:10895000062FD42E0E948D44E0ECF1E083E3828761
:1089600010E00F711070FF2455E0EE0CFF1C5A95BB
:10897000E1F70E291F290083812F8F7181831282D5
:10898000D48285E38287EBECF1E021E030E088EDF2
:1089900090E084BF20831F910F91FF90EF90DF90B4
:1089A0000895982FE0ECF1E08091CF0187FDFACF98
:1089B00083E382879093C0011182128264830895B9
:1089C000DC01E0ECF1E08091CF0187FDFACF83E399
:1089D00082871182128290E09093C0018D918483EE
:1089E0009F5F9032C9F70895982FE0ECF1E08091F5
:1089F000CF0187FDFACF892F90E065E0880F991F9E
:108A00006A95E1F78093C001892F8F71818312826B
:108A100085E38287EBECF1E021E030E088ED90E047
:108A200084BF20830895982FE0ECF1E08091CF017E
:108A300087FDFACF892F90E075E0880F991F7A950E
:108A4000E1F78093C001892F8F718183128282E3C5
:108A50008287EBECF1E021E030E088ED90E084BF2C
:108A600020830895982FE0ECF1E08091CF0187FDFD
:108A7000FACF892F90E0A5E0880F991FAA95E1F71A
:108A80008093C001892F8F718183128284E3828752
:108A9000EBECF1E021E030E088ED90E084BF208352
:108AA00008958091CF0187FDFCCF80E3E0ECF1E0F9
:108AB0008287EBECF1E021E030E088ED90E084BFCC
:108AC00020830895E0E8F6E0818188608183E0EA10
:108AD000FAE08CE0868317828CE184830895E0EAD3
:108AE000F4E010828AE0808781E18387158608950B
:108AF00088ED84BF8FE1809380008091820080FDAB
:108B0000FCCF0895E0E8F0E080818C7F816098EDF3
:108B100094BF808308953BB78BBFFB0186913BBF19
:108B200008953BB78BBFFB01879196913BBF08959A
:108B300042E081C041E07FC08093C00188278093DC
:108B4000C1018093C20147E066D0CB0108958093B4
:108B5000C40148E060C08091D00108953BB748E16E
:108B60000C9435463BB74AE10C9435463BB740E29E
:108B70000C9435463BB78BBFCB0142E20C94354693
:108B80003BB70B0143E20C9435463BB76BBFFA0190
:108B900019BEDC0140E04093CA0150E087919791F3
:108BA0008D939D935A95D1F73BBF08953BB78BBFEB
:108BB000CB0144E20C9435463BB78BBFCB0145E279
:108BC0000C9435463BB746E20C9435463BB78BBF19
:108BD000CB014AE20C9435463BB78BBFCB014CE24C
:108BE0000C9435463BB78BBFCB014DE20C94354618
:108BF00048E311C049E30FC028ED2093340021E081
:108C00002093CC0108952091CF0127FDFCCF22278E
:108C10002093CA0108954093CA0128ED31E02093C2
:108C200034003093CB016091C4017091C5018091F3
:108C3000C60199270895FC014093CA0184910895C3
:048C4000F894FFCFD6
:108C4400EE27FF2719BEDC0143E24093CA0150E836
:108C54002DE90D901D9020933400E89532965A9595
:108C6400C1F711240895FC014093CA012DE9209312
:0A8C74003400E89511243BBF089579
:040000030000800079
:00000001FF
